:100000000C9463000C948B000C948B000C946E0881
:100010000C946E080C946E080C948B000C948B005E
:100020000C948B000C948B000C948B000C948B0024
:100030000C948B000C948B000C948B000C948B0014
:100040000C9424080C948B000C94F2070C94CC07AD
:100050000C948B000C948B000C948B000C948B00F4
:100060000C94E6080C948B0000000000240027008C
:100070002A0000000008000201000003040700003D
:1000800000000000000000000000230026002900FE
:1000900000000000250028002B00040404040404D0
:1000A0000404020202020202030303030303010227
:1000B00004081020408001020408102001020408F6
:1000C0001020050ACF0D11241FBECFEFD8E0DEBFF0
:1000D000CDBF12E0A0E0B1E0E6EBF1E202C0059096
:1000E0000D92AA31B107D9F723E0AAE1B2E001C02D
:1000F0001D92AB3FB207E1F710E0C2E6D0E004C0CA
:100100002197FE010E94D60EC136D107C9F70E9481
:10011000D70A0C94CE100C94000008950895AF9265
:10012000BF92CF92DF92EF92FF920F931F93CF93E4
:10013000DF936C017B018B01040F151FEB015E0146
:10014000AE18BF08C017D10759F06991D601ED91DB
:10015000FC910190F081E02DC6010995892B79F77A
:10016000C501DF91CF911F910F91FF90EF90DF902C
:10017000CF90BF90AF900895FC01538D448D252FF3
:1001800030E0842F90E0821B930B541710F0CF9631
:10019000089501970895FC01918D828D981761F063
:1001A000A28DAE0FBF2FB11D5D968C91928D9F5F7A
:1001B0009F73928F90E008958FEF9FEF0895FC0159
:1001C000918D828D981731F0828DE80FF11D858D0C
:1001D00090E008958FEF9FEF0895FC01918D228D9F
:1001E000892F90E0805C9F4F821B91098F73992724
:1001F000089583E293E00E94ED0021E0892B09F449
:1002000020E0822F089580E090E0892B29F00E9461
:10021000F90081110C9400000895FC01A48DA80F31
:10022000B92FB11DA35ABF4F2C91848D90E0019638
:100230008F739927848FA689B7892C93A089B18958
:100240008C91837080648C93938D848D981306C0F9
:100250000288F389E02D80818F7D80830895EF925D
:10026000FF920F931F93CF93DF93EC0181E0888F70
:100270009B8D8C8D98131AC0E889F989808185FF40
:1002800015C09FB7F894EE89FF896083E889F989E2
:1002900080818370806480839FBF81E090E0DF91E4
:1002A000CF911F910F91FF90EF900895F62E0B8D37
:1002B00010E00F5F1F4F0F731127E02E8C8D8E11F2
:1002C0000CC00FB607FCFACFE889F989808185FF59
:1002D000F5CFCE010E940D01F1CFEB8DEC0FFD2F7C
:1002E000F11DE35AFF4FF0829FB7F8940B8FEA8914
:1002F000FB8980818062CFCFCF93DF93EC01888D23
:100300008823B9F0AA89BB89E889F9898C9185FD90
:1003100003C0808186FD0DC00FB607FCF7CF8C911E
:1003200085FFF2CF808185FFEDCFCE010E940D01C8
:10033000E9CFDF91CF91089590E0FC01EE58FF4F97
:100340002491FC01E255FF4F3491FC01E656FF4F2A
:10035000E491EE23C9F0222339F0233001F1A8F40F
:10036000213019F1223029F1F0E0EE0FFF1FE057A4
:10037000FF4FA591B4918FB7F894EC91611126C00D
:1003800030953E233C938FBF08952730A9F0283045
:10039000C9F0243049F7809180008F7D03C080919F
:1003A00080008F7780938000DFCF84B58F7784BD06
:1003B000DBCF84B58F7DFBCF8091B0008F778093AA
:1003C000B000D2CF8091B0008F7DF9CF3E2BDACF35
:1003D000CF93DF9390E0FC01E255FF4F24918656C6
:1003E0009F4FFC0184918823D1F090E0880F991FE2
:1003F000FC01E859FF4FA591B491FC01E057FF4F74
:10040000C591D49161110EC09FB7F8948C91E22FE1
:10041000E0958E238C932881E223E8839FBFDF91B0
:10042000CF9108958FB7F894EC91E22BEC938FBFA6
:10043000F6CF8E50806480937C0080917A00806437
:1004400080937A0080917A0086FDFCCF80917800BD
:100450009091790008953FB7F8948091110390919D
:100460001203A0911303B091140326B5A89B05C0F5
:100470002F3F19F00196A11DB11D3FBFBA2FA92F23
:10048000982F8827BC01CD01620F711D811D911D20
:1004900042E0660F771F881F991F4A95D1F708958C
:1004A0008F929F92AF92BF92CF92DF92EF92FF9284
:1004B0004B015C010E942B026B017C010E942B020C
:1004C0006C197D098E099F09683E7340810591056D
:1004D000A8F321E0821A9108A108B10888EEC80E9D
:1004E00083E0D81EE11CF11C81149104A104B10425
:1004F00029F7FF90EF90DF90CF90BF90AF909F9043
:100500008F90089520911F033091200328173907F9
:1005100071F490911D0380911E03981741F0E091B2
:100520001D03F0E0E453FD4F808190E008958FEFCC
:100530009FEF08950895EF92FF920F931F93CF932B
:10054000DF93DC015C96ED90FC905D97E114F10483
:1005500079F481E090E013969C938E93129790E04B
:1005600080E0DF91CF911F910F91FF90EF90089560
:100570005196ED91FC91529750968C915097982FEF
:1005800090950FB75E962C915E97122F127021FDF9
:100590006095F8942081112319F1282B2083E7011D
:1005A0002197F1F728E0462F50E0308160FF1AC014
:1005B000382B3083E7012197F1F7BA0175956795DC
:1005C000215089F7112381F08081892380830FBF17
:1005D0005C968D919C910197F1F781E090E0C1CFFD
:1005E0002923DCCF3923E5CF9081892BEFCF2091D0
:1005F0001F03309120032817390771F480911E03DF
:1006000020911D0390E0805C9F4F821B910960E464
:1006100070E00E94A70E089590E080E00895209178
:100620001F033091200328173907B9F490911D0357
:1006300080911E03981789F0E0911D03F0E0E453C8
:10064000FD4F808120911D0330E02F5F3F4F2F73BE
:10065000332720931D0390E008958FEF9FEF0895B7
:10066000089520915B02260F3327331F2132310575
:10067000ECF42091A402FC0190E080E0243069F0C9
:1006800082E00895A0915B022191AC01455C5D4F31
:10069000A40FB52FB11D2C930196861798F3809166
:1006A0005B02680F60935B0280E0089581E008952B
:1006B0001092A40281E08093A30210927E0261E076
:1006C00082E10E949C0161E083E10E949C01E9EBD0
:1006D000F0E080818E7F808380818D7F808388E4BD
:1006E0008093B80085E48093BC000895CF93DF9396
:1006F00091E090933A028823B9F0C091B800D0916C
:10070000BA008091BC008A7B8093BC0060E082E1EB
:100710000E949C0160E083E10E949C010E945803BA
:10072000D093BA00C093B800DF91CF910895E091C3
:100730001C0380911B03E81730F4F0E0E65EFD4FE8
:10074000808190E008958FEF9FEF089590911C03B2
:1007500080911B032FEF3FEF981748F4E92FF0E04B
:10076000E65EFD4F208130E09F5F90931C03C9013E
:10077000089580911B0390911C03891B990B089588
:10078000CF92DF92EF92FF920F931F93CF93DF935D
:100790007C01CB018A012091AA02222389F0EB017E
:1007A0006B01C40ED51ECC15DD0569F06991D7012A
:1007B000ED91FC910190F081E02DC7010995F3CFF7
:1007C000642F0E943103C801DF91CF911F910F91D7
:1007D000FF90EF90DF90CF900895CF93DF931F921B
:1007E000CDB7DEB769832091AA022223F9F02091C8
:1007F0001903203258F021E030E0FC0133832283DA
:1008000090E080E00F90DF91CF91089580911A03DE
:10081000E82FF0E0E555FD4F998190838F5F80933D
:100820001A038093190381E090E0ECCF61E0CE01E0
:1008300001960E943103F7CFCF92DF92EF92FF92A1
:100840000F931F93CF93DF93FC01C48121E020938A
:10085000AA02C093CB0210921A0310921903838547
:10086000682B80EC93E00E94ED03D0911903D13204
:1008700008F092C00E942B026B017C018091A402BF
:10088000811165C082E08093A40281E08093A3027D
:100890008FEF8093A2021092A102D093A002ABEA44
:1008A000B2E0E0E8F2E080E0D81385C010927F0269
:1008B00080917F02CC0FC82BC0937F0280917E0273
:1008C000813009F07CC010927E020E942B026B01E5
:1008D0007C0180917F028093BB008091A602909161
:1008E000A702A091A802B091A902892B8A2B8B2B79
:1008F00099F00E942B020091A6021091A70220916C
:10090000A8023091A9026C197D098E099F0906176A
:10091000170728073907E0F18091BC0083FDD9CF84
:1009200085EC8093BC000E942B026B017C018091BE
:10093000A402823009F445C08091A2028F3F61F188
:100940008091A202803241F18091A20225C0809163
:10095000A6029091A702A091A802B091A902892BAA
:100960008A2B8B2B09F48ACF0E942B020091A602BE
:100970001091A7022091A8023091A9026C197D095B
:100980008E099F09061717072807390708F076CF41
:100990008091A5020E94760310921A031092190307
:1009A0001092AA02DF91CF911F910F91FF90EF90CB
:1009B000DF90CF9008959D9191938F5F75CF85EED5
:1009C000B0CF8091A6029091A702A091A802B09109
:1009D000A902892B8A2B8B2B09F4A9CF0E942B0209
:1009E0000091A6021091A7022091A8023091A902BD
:1009F0006C197D098E099F09061717072807390703
:100A000008F095CFC5CF90E080E0089561E088E0E0
:100A10000E949C0168EE73E080E090E00E9450022A
:100A200060E088E00C949C010F931F93CF938C019E
:100A3000C62F0E941C046C2F6460C8010E941C0415
:100A40006C2F6B7FC8010E941C0483EC90E001971F
:100A5000F1F7CF911F910F9108950F931F93CF93AB
:100A6000DF938C01D62FC42F607F642B0E94140566
:100A700080E1D89FB00111246C2BC801DF91CF9188
:100A80001F910F910C941405CF93DF93CDB7DEB770
:100A900028970FB6F894DEBF0FBECDBF98E0E6E012
:100AA000F1E0DE01119601900D929A95E1F7909197
:100AB000F303981708F48FEF90E0880F991F21E057
:100AC00030E02C0F3D1F820F931FFC016081606896
:100AD00040E08BEE93E028960FB6F894DEBF0FBE91
:100AE000CDBFDF91CF910C942D0541E00E942D05E3
:100AF00081E090E00895FB0101900020E9F7319733
:100B0000AF01461B570BDC01ED91FC910280F38194
:100B1000E02D09948F929F92AF92BF92CF92DF9275
:100B2000EF92FF92CF93DF93CDB7DEB7A1970FB6C9
:100B3000F894DEBF0FBECDBF6C01990FEE08FF0821
:100B4000F7FE40C041E06DE28BEE93E00E942D0580
:100B500022273327A9012C193D094E095F0919A243
:100B6000CE0181967C019AE0892E912CA12CB12C8A
:100B7000CA01B901A50194010E94760E605DF701DA
:100B800062937F01211531054105510589F790E0F8
:100B900080E0309729F0BF018BEE93E00E947B0547
:100BA0000196A1960FB6F894DEBF0FBECDBFDF91C0
:100BB000CF91FF90EF90DF90CF90BF90AF909F903C
:100BC0008F900895A701960119A2CE0181967C010C
:100BD0008AE0882E912CA12CB12CCA01B901A50163
:100BE00094010E94760E605DF70162937F012115EA
:100BF00031054105510589F790E080E0309789F291
:100C0000BF018BEE93E00E947B05CBCF0F931F9328
:100C1000CF93DF93EC010E947B058C0160E571E0CE
:100C2000CE010E947B05800F911FDF91CF911F9114
:100C30000F9108950F931F93CF93DF93EC01888159
:100C40009981009759F02A813B812617370730F0A8
:100C500081E0DF91CF911F910F9108958B016F5F1C
:100C60007F4F0E940110009759F0998388831B835E
:100C70000A832C813D81232B59F7FC011082E8CF98
:100C800080E0E7CFEF92FF920F931F93CF93DF9314
:100C90006115710541F480E0DF91CF911F910F91B3
:100CA000FF90EF90089541155105B1F07B01EC01E3
:100CB0000C811D81040F151FB8010E941A0688239C
:100CC00051F3288139818C819D81B701820F931F57
:100CD0000E94C7101D830C8381E0DECFCF93DF938A
:100CE000EC0188819981009711F00E94780F198298
:100CF00018821D821C821B821A82DF91CF91089577
:100D0000CF93DF93EC01FB014481558160817181B8
:100D10000E944206811103C0CE010E946E06CE01E0
:100D2000DF91CF910895EF92FF920F931F93CF938E
:100D3000DF93EC017B018A01BA010E941A0681113E
:100D40000BC0CE010E946E06CE01DF91CF911F91A4
:100D50000F91FF90EF9008951D830C83B701888158
:100D600099810E94C710F0CFEF92FF920F931F93CB
:100D7000CF93DF93CDB7DEB762970FB6F894DEBF9F
:100D80000FBECDBF8C01CB01F801118210821382FE
:100D90001282158214824AE09E012F5F3F4F790133
:100DA000B9010E94EB0DF70101900020E9F731979E
:100DB000AF014E195F09B701C8010E949306629600
:100DC0000FB6F894DEBF0FBECDBFDF91CF911F915C
:100DD0000F91FF90EF900895FB01DC0111961C929A
:100DE0001E9213961C921E92129715961C921E929A
:100DF00014978617970749F0608171816115710515
:100E000021F0448155810C9493060895FC011182D0
:100E100010821382128215821482FB01019000203D
:100E2000E9F73197AF01461B570B0C949306FC0171
:100E300080819181009711F00C94780F08950F93A1
:100E40001F93CF93DF9300D000D000D0CDB7DEB793
:100E50008C0163E571E0CE0101960E940607B8019E
:100E6000CE0101960E948006FC014481558160817B
:100E7000718183E293E00E948F0060E571E083E27C
:100E800093E00E947B05CE0101960E94170761E660
:100E900071E08CEC93E00E94060664E670E080E06E
:100EA00090E00E9450026BE671E08CEC93E00E94AF
:100EB000060664E670E080E090E00E945002F801CF
:100EC00044815581608171818CEC93E00E948F0098
:100ED00064E670E080E090E00E9450026AE18CECF1
:100EE00093E00E949B0268E873E180E090E00E943A
:100EF00050028CEC93E00E94F702892B51F08CECAD
:100F000093E00E940F03682F83E293E00E942F0179
:100F1000F0CF26960FB6F894DEBF0FBECDBFDF919F
:100F2000CF911F910F91089585ED8093BC00809122
:100F3000A6029091A702A091A802B091A9020796DB
:100F4000A11DB11D23E0B695A795979587952A9584
:100F5000D1F72091BC0024FD03C01092A402089593
:100F60004091A6025091A7026091A8027091A90237
:100F7000452B462B472B69F30097A105B10541F09E
:100F800025E32A95F1F700000197A109B109E1CF06
:100F90008091A5020C9476031F920F920FB60F92C8
:100FA00011242F933F934F935F936F937F938F936E
:100FB0009F93AF93BF93EF93FF9383E293E00E94DD
:100FC0000D01FF91EF91BF91AF919F918F917F9113
:100FD0006F915F914F913F912F910F900FBE0F90A6
:100FE0001F9018951F920F920FB60F9211242F93F6
:100FF0008F939F93EF93FF93E0913303F09134032A
:101000008081E0913903F0913A0382FD1BC0908109
:1010100080913C038F5F8F7320913D03821741F0D5
:10102000E0913C03F0E0ED5DFC4F958F80933C0335
:10103000FF91EF919F918F912F910F900FBE0F9085
:101040001F9018958081F4CF1F920F920FB60F92C8
:1010500011242F933F938F939F93AF93BF938091CE
:101060000D0390910E03A0910F03B09110033091E6
:101070000C0323E0230F2D3758F50196A11DB11D58
:1010800020930C0380930D0390930E03A0930F0302
:10109000B09310038091110390911203A091130358
:1010A000B09114030196A11DB11D8093110390937B
:1010B0001203A0931303B0931403BF91AF919F91B8
:1010C0008F913F912F910F900FBE0F901F90189509
:1010D00026E8230F0296A11DB11DD2CF1F920F92B9
:1010E0000FB60F9211242F933F934F935F936F93FB
:1010F0007F938F939F93AF93BF93EF93FF93E09171
:101100001F03F0912003309749F0A685B7858585A8
:10111000968D91FF14C09C918923A1F4FF91EF91CA
:10112000BF91AF919F918F917F916F915F914F91FF
:101130003F912F910F900FBE0F901F9018959C918B
:10114000892361F7A389B4899C9185898095892336
:101150008C93868997890197F1F7608D718DA685AB
:10116000B785558538E020E0CB010197F1F7822F54
:1011700090E095958795282F4C91452309F020689C
:10118000315091F7868D81FD209580911E0390E06E
:1011900001968F73992730911D03381799F0A0910C
:1011A0001E03B0E0A453BD4F2C9380931E03828D89
:1011B000938D0197F1F7A389B4898C919589892B37
:1011C0008C93ACCF868D8160868FF1CF1F920F926A
:1011D0000FB60F9211242F933F934F935F936F930A
:1011E0007F938F939F93AF93BF93EF93FF938091E0
:1011F000B900887F803609F44AC0F0F5883209F4D6
:10120000A7C018F5803109F49BC0B8F4882309F40D
:10121000F9C0883009F494C0FF91EF91BF91AF916C
:101220009F918F917F916F915F914F913F912F91FE
:101230000F900FBE0F901F901895883109F488C049
:10124000803251F78093A20214C0803409F49DC00B
:1012500040F48033B9F38833F9F68093A20285EC29
:10126000B0C0803509F485C0883509F496C088344B
:1012700099F60E949407D0CF883909F48CC038F5CC
:10128000883729F050F4883611F0803729F683E04A
:101290008093A40210927D0257C0883809F47BC065
:1012A000803919F0803809F0B7CF80917D02803203
:1012B00008F071C0E0917D0281E08E0F80937D0285
:1012C0008091BB00F0E0E35AFD4F80833DC0803B3E
:1012D00039F0E0F4803A09F479C0883A09F09CCFFB
:1012E00084E08093A40210925C0210925B02E09171
:1012F0001703F0911803099580915B0281110FC0CB
:1013000081E080935B0210923B0209C0803C09F4AB
:10131000A6CF883C09F4A3CF883B09F07DCFE091AC
:101320005C0281E08E0F80935C02F0E0E55CFD4F93
:1013300080818093BB0090915C0280915B0229C008
:1013400080917F028093BB0085EC8093BC0064CFCA
:101350009091A1028091A002981758F5E091A10206
:1013600081E08E0F8093A102F0E0E058FD4F808174
:10137000E9CFE091A10281E08E0F8093A1028091DC
:10138000BB00F0E0E058FD4F80839091A102809176
:10139000A0029817C8F285E8D8CFE091A10281E0B9
:1013A0008E0F8093A1028091BB00F0E0E058FD4FCA
:1013B00080838091A30281115CCF81E080937E02C3
:1013C00084EA8093BC001092A40226CF85EC80931F
:1013D000BC001092A40280917D02803230F4E09132
:1013E0007D02F0E0E35AFD4F108260917D0270E0D3
:1013F000E0911503F09116038DE592E009951092A6
:101400007D020ACF1092A20234CF109226031092CE
:10141000250388EE93E0A0E0B0E08093270390934B
:101420002803A0932903B0932A0322E131E03093EB
:1014300024032093230325EC30E0309330032093E2
:101440002F0324EC30E0309332032093310320EC5F
:1014500030E0309334032093330321EC30E03093B9
:1014600036032093350322EC30E030933803209389
:10147000370326EC30E030933A032093390310927F
:101480003C0310923D0310923E0310923F031092D2
:10149000C3031092C2038093C4039093C503A09327
:1014A000C603B093C70324E231E03093C103209315
:1014B000C0031092EE031092ED0328E431E0309364
:1014C000EC032093EB0327E22093EF0320E120932A
:1014D000F40322E02093F5031092F6031092CF0359
:1014E0001092CE038093D0039093D103A093D203A4
:1014F000B093D30386E391E09093CD038093CC0324
:101500001092E3031092E2031092E5031092E403B9
:101510001092E7031092E6031092E9031092E80399
:101520006091EA036E7F6D7F6093EA036695617058
:1015300081E0682783E00E949C0161E083E00E94D3
:10154000E801E1EBF0E0E491E093DC03EDE9F0E0A9
:10155000E491F0E0EE0FFF1FE057FF4F859194916B
:101560009093DE038093DD0360E082E00E94E80157
:101570008091EA0381FD04C061E082E00E949C0149
:1015800082E08093D803E0EBF0E0E491E093D903AC
:10159000ECE9F0E0E491F0E0EE0FFF1FEA57FF4FB7
:1015A000859194919093DB038093DA030895CF9310
:1015B000DF93CDB7DEB764970FB6F894DEBF0FBEEA
:1015C000CDBF789484B5826084BD84B5816084BDCC
:1015D00085B5826085BD85B5816085BD80916E00D1
:1015E000816080936E001092810080918100826002
:1015F000809381008091810081608093810080913F
:1016000080008160809380008091B100846080932D
:10161000B1008091B00081608093B00080917A0029
:10162000846080937A0080917A00826080937A004F
:1016300080917A00816080937A0080917A0080683E
:1016400080937A001092C10010921C0310921B0329
:1016500010921A03109219030E9458038DE890E02B
:1016600090931803809317038EE890E090931603ED
:10167000809315031092F0038091F503823018F0E7
:1016800098E09093F0038093F30362E370E080E0CE
:1016900090E00E9450026091F6038BEE93E00E946E
:1016A0001C0468EE73E080E090E00E94500260E36A
:1016B0008BEE93E00E9414050BE416E4C801019739
:1016C000F1F760E38BEE93E00E941405C8010197E7
:1016D000F1F760E38BEE93E00E94140583E592E05E
:1016E0000197F1F760E28BEE93E00E9414056091A0
:1016F000F003606240E08BEE93E00E942D0584E0F1
:101700008093F10340E06CE08BEE93E00E942D05A6
:1017100040E061E08BEE93E00E942D050BE31FE1BA
:10172000C8010197F1F792E0F92EF092F20340E040
:1017300066E08BEE93E00E942D0540E062E08BEEC8
:1017400093E00E942D05C8010197F1F788E080938E
:10175000F60360E08BEE93E00E941C04E0913303FB
:10176000F0913403F082E0912F03F0913003108266
:10177000E0913103F09132038FEC808310923B03B0
:10178000E0913703F091380386E08083E0913503E0
:10179000F0913603808180618083E0913503F09180
:1017A0003603808188608083E0913503F0913603B1
:1017B000808180688083E0913503F09136038081D9
:1017C0008F7D80831092E7031092E6031092E50369
:1017D0001092E4031092E3031092E2038DE991E08A
:1017E0009093E9038093E8039091D803963108F031
:1017F00047C02DEB30E03093E3032093E2032BE965
:1018000031E03093E5032093E4032CE231E03093A0
:10181000E7032093E6032091680084E0983048F0C5
:1018200031E09E3008F430E081E001C0880F3A9545
:10183000EAF7822B809368002DE630E0983050F074
:101840002BE630E09E3030F02CE630E0963110F0A0
:1018500030E020E03093E0032093DF03292F30E0D5
:10186000983008F06CC081E001C0880F9A95EAF7C3
:101870008093E1038091E8039091E9030197F1F7E8
:101880008091E6039091E703892B49F1E0911F03D2
:10189000F091200383E0EC3CF80709F1309739F030
:1018A000A389B4899C918589809589238C938091A3
:1018B000EA038E7F8093EA0310921E0310921D03A9
:1018C0008CEC93E09093200380931F03E091DF035F
:1018D000F091E00380819091E103892B808361E0A6
:1018E00088E00E94E80160E088E00E949C0161E8D5
:1018F00071E08CEC93E00E94060668EE73E080E0F5
:1019000090E00E9450028CEC93E00E94F702892B39
:1019100019F164E871E083E293E00E9406068CEC22
:1019200093E00E94F702892BE9F08CEC93E00E948F
:101930000F03682F83E293E00E942F01F0CF9E30C7
:1019400040F42850310981E001C0880F2A95EAF758
:101950008FCF2E503109F7CF65E971E083E293E034
:101960000E94060680E00E9444056FEA71E08BEE5B
:1019700093E00E947B0568EE73E080E090E00E94B7
:10198000500240E061E08BEE93E00E942D058BE376
:101990009FE10197F1F760E08EE00E94E80160E0CE
:1019A0008FE00E94E80188248A9483E0982EA12C7D
:1019B000B12C8EE00E9419027C018FE00E94190276
:1019C0008C012CE330E0D7010E94BB0EA5019401ED
:1019D0000E94200E29013A019CE3490E511C611C12
:1019E000711C2AE030E0D8010E94BB0EA5019401D1
:1019F0000E94200E69017A018AE5C80ED11CE11C03
:101A0000F11CDC8ACB8A80E00E94440561EC71E025
:101A10008BEE93E00E947B05C6010E948A0568EC6C
:101A200071E08BEE93E00E947B0581E00E9444050B
:101A30006DEC71E08BEE93E00E947B05C2010E9489
:101A40008A0562ED71E08BEE93E00E947B0595E6DE
:101A5000491651040CF49DC080912203811138C0B5
:101A6000B201CE0107960E94B40668ED71E0CE0186
:101A70000D960E940607BE01695F7F4FCE010D964D
:101A80000E9480068C0144E050E06AEF71E00E9401
:101A90004206811103C0C8010E946E06B801CE0142
:101AA00001960E94EC06CE0101960E941F07CE010E
:101AB00001960E941707CE010D960E941707CE01CE
:101AC00007960E94170781E0809322030E94060573
:101AD0008B899C898F3591050CF05EC08091210324
:101AE000811138C0B601CE0107960E94B4066FEF8F
:101AF00071E0CE010D960E940607BE01695F7F4F1F
:101B0000CE010D960E9480068C0141E050E067E115
:101B100072E00E944206811103C0C8010E946E0655
:101B2000B801CE0101960E94EC06CE0101960E94FA
:101B30001F07CE0101960E941707CE010D960E9445
:101B40001707CE0107960E94170781E080932103B3
:101B50000E94060580912203811108C08091210313
:101B6000811104C060E088E00E949C0168EC70E094
:101B700080E090E00E94500280E090E0892B09F420
:101B800018CF0E94F900882309F413CF0E940000A7
:101B900010CF109222039CCF10922103DBCF86E35B
:101BA00091E09093CD038093CC0380911F0390919B
:101BB00020038C5C934071F4E091DF03F091E0032B
:101BC00090818091E1038095892380831092200386
:101BD00010921F030895BB274A3031F4992322F451
:101BE000BDE2909581959F4F0C94F70DBB27FB01AB
:101BF0005527AA27880F991FAA1FA41710F0A41B06
:101C000083955051B9F7A05DAA3308F0A95DA1935F
:101C1000009779F7B111B1931192CB010C94100E8A
:101C2000DC01FC01672F71917723E1F7329704C043
:101C30007C916D9370836291AE17BF07C8F30895CE
:101C4000052E97FB1EF400940E94370E57FD07D017
:101C50000E94760E07FC03D04EF40C94370E50957C
:101C60004095309521953F4F4F4F5F4F0895909588
:101C70008095709561957F4F8F4F9F4F08952F925C
:101C80003F924F925F926F927F928F929F92AF920C
:101C9000BF92CF92DF92EF92FF920F931F93CF9359
:101CA000DF93CDB7DEB7CA1BDB0B0FB6F894DEBFF0
:101CB0000FBECDBF09942A88398848885F846E8416
:101CC0007D848C849B84AA84B984C884DF80EE8060
:101CD000FD800C811B81AA81B981CE0FD11D0FB669
:101CE000F894DEBF0FBECDBFED010895A1E21A2E1C
:101CF000AA1BBB1BFD010DC0AA1FBB1FEE1FFF1FB0
:101D0000A217B307E407F50720F0A21BB30BE40BFF
:101D1000F50B661F771F881F991F1A9469F7609546
:101D20007095809590959B01AC01BD01CF01089500
:101D3000A29FB001B39FC001A39F700D811D11240C
:101D4000911DB29F700D811D1124911D089597FB67
:101D5000072E16F4009407D077FD09D00E94C20E1A
:101D600007FC05D03EF4909581959F4F089570959E
:101D700061957F4F08950E94980EB7FF0895821BCA
:101D8000930B0895AA1BBB1B51E107C0AA1FBB1FE1
:101D9000A617B70710F0A61BB70B881F991F5A95F7
:101DA000A9F780959095BC01CD010895EE0FFF1F16
:101DB0000590F491E02D09940F931F93CF93DF9337
:101DC0008230910510F482E090E0E091F903F09107
:101DD000FA0330E020E0B0E0A0E0309799F421155C
:101DE000310509F44AC0281B390B24303105D8F5D8
:101DF0008A819B816115710589F1FB01938382833F
:101E0000FE0111C040815181028113814817590799
:101E1000E0F04817590799F4109761F012960C9367
:101E2000129713961C933296CF01DF91CF911F9199
:101E30000F9108950093F9031093FA03F4CF21153D
:101E4000310551F04217530738F0A901DB019A011F
:101E5000BD01DF01F801C1CFEF01F9CF9093FA0383
:101E60008093F903CDCFFE01E20FF31F819391938D
:101E70002250310939832883D7CF2091F70330913D
:101E8000F803232B41F42091020130910301309398
:101E9000F8032093F70320910001309101012115EF
:101EA000310541F42DB73EB7409104015091050131
:101EB000241B350BE091F703F091F803E217F307C9
:101EC000A0F42E1B3F0B2817390778F0AC014E5FAA
:101ED0005F4F2417350748F04E0F5F1F5093F803EC
:101EE0004093F703819391939FCFF0E0E0E09CCF84
:101EF000CF93DF930097E9F0FC01329713821282AF
:101F0000A091F903B091FA03ED0130E020E01097C1
:101F1000A1F420813181820F931F2091F70330912A
:101F2000F8032817390709F061C0F093F803E0932C
:101F3000F703DF91CF910895EA01CE17DF07E8F5A7
:101F40004A815B819E0141155105B1F7E901FB838F
:101F5000EA8349915991C40FD51FEC17FD0761F42D
:101F6000808191810296840F951FE901998388836E
:101F7000828193819B838A83F0E0E0E012968D91C9
:101F80009C9113970097B9F52D913C911197CD0134
:101F90000296820F931F2091F7033091F8032817C0
:101FA000390739F6309751F51092FA031092F90378
:101FB000B093F803A093F703BCCFD383C2834081CF
:101FC0005181840F951FC817D90761F44E5F5F4F89
:101FD00088819981480F591F518340838A819B8151
:101FE000938382832115310509F0B0CFF093FA0372
:101FF000E093F9039ECFFD01DC01C0CF1382128272
:10200000D7CFB0E0A0E0E7E0F0E10C94410E8C0106
:10201000009751F4CB010E94DC0E8C01C801CDB7B2
:10202000DEB7E0E10C945D0EFC01E60FF71F9C01AA
:1020300022503109E217F30708F49DC0D901CD9170
:10204000DC911197C617D70798F0C530D10530F34A
:10205000CE0104978617970708F3C61BD70B229764
:10206000C193D1936D937C93CF010E94780FD6CF0B
:102070005B01AC1ABD0A4C018C0E9D1EA091F903A8
:10208000B091FA03512C412CF12CE12C109731F531
:102090008091F7039091F8038815990509F05CC0C9
:1020A0004616570608F058C0809100019091010132
:1020B000009741F48DB79EB74091040150910501FE
:1020C000841B950BE817F90708F055C0F093F80347
:1020D000E093F703F90171836083A0CF8D919C9108
:1020E000119712966C90129713967C901397A815DF
:1020F000B90559F56C0142E0C40ED11CCA14DB04C9
:1021000020F1AC014A195B09DA011296159780F0AB
:102110006282738251834083D9016D937C93E11471
:10212000F10471F0D7011396FC93EE93129776CFDA
:1021300022968C0F9D1FF90191838083F301EFCFCD
:10214000F093FA03E093F90369CF4816590608F4AF
:102150002C017D01D3019ACFCB010E94DC0E7C01C2
:10216000009749F0AE01B8010E94BE10C8010E945C
:10217000780F870153CF10E000E050CFFB01DC0166
:1021800002C001900D9241505040D8F70895FB01D4
:10219000DC0101900D920020E1F7089510E0C2E605
:1021A000D0E004C0FE010E94D60E2196C336D107AE
:0621B000C9F7F894FFCF0F
:1021B6000000FB03800000004000140054000000F3
:1021C60000002F018F00BC007C01ED00CB00DF007A
:1021D60000000000ED03C00303059A02B903A6033D
:1021E6009703000000009B028F0003059A02F70286
:1021F6000F0382020000000075058F0003053003FF
:102206000D0A0053656E64696E6720534D533A207C
:102216000041542B434D47463D310041542B434D1D
:1022260047533D222B313233343536373839302255
:102236000041540047534D204D6F64756C65205224
:10224600656164790047534D204D6F64756C652058
:102256004E6F7420526573706F6E64696E670053BB
:10226600704F322026204852204D6F6E69746F726F
:102276000053704F323A2000252020200048523A61
:1022860020002062706D2000416C65727421204828
:102296006561727420726174652061626F76652073
:1022A6003130302062706D3A20002062706D00413E
:1022B6006C657274212053704F322062656C6F77A3
:0A22C600203935253A2000250000DC
:00000001FF
